:100000000C942A000C943F000C943F000C943F0089
:100010000C943F000C943F000C943F000C943F0064
:100020000C943F000C943F000C943F000C943F0054
:100030000C943F000C943F000C943F000C943F0044
:100040000C943F000C943F000C943F000C943F0034
:100050000C943F0011241FBECFE5D8E0DEBFCDBF1A
:1000600010E0A0E6B0E0E2EEF2E002C005900D92F2
:10007000AA36B107D9F70E9424010C946F010C94A1
:100080000000CF93DF93CDB7DEB72A970FB6F89471
:10009000DEBF0FBECDBF9AE0E0E6F0E0DE011196D4
:1000A00001900D929A95E1F795B3906495BB9DEC04
:1000B000899F912D1124969596959695392F330FFA
:1000C000232F220F220F230F821BE1E0F0E0EC0F21
:1000D000FD1FE80FF11D80818BBB85B38F7785BB3A
:1000E000EFE0F7E23197F1F700C0000085B38068D8
:1000F00085BBE1E0F0E0EC0FFD1FE90FF11D808111
:100100008BBB85B38F7B85BB8FE097E20197F1F7BF
:1001100000C000002A960FB6F894DEBF0FBECDBF18
:10012000DF91CF91089590E02AC085B3806885BBA8
:1001300085B3806485BB8EE78BBB85B3806285BB4E
:100140008FEF88BB2FEF31EE84E0215030408040AC
:10015000E1F700C0000085B38F7785BB85B38F7B47
:1001600085BB85B38F7D85BB18BA2FEF3DEE82E04E
:10017000215030408040E1F700C000009F5F943084
:10018000A0F208951F93CF93DF93C82FDDEC8D9FCE
:10019000D12D1124D695D695D6959D2F990F892FBF
:1001A000880F880F890F1C2F181B8C2F0E9441006D
:1001B00090E03CC0829912C0EFE0F7E23197F1F78E
:1001C00000C00000829BFECFEFE0F7E23197F1F72D
:1001D00000C00000DF5FDA3009F4D0E0839912C07C
:1001E000EFE0F7E23197F1F700C00000839BFECF0C
:1001F000EFE0F7E23197F1F700C000001F5F1A301F
:1002000009F410E02D2F220F822F880F880F820F04
:10021000C82FC10F849909C08FE097E20197F1F7C9
:1002200000C00000849BFECF04C09F5F943110F299
:10023000BCCFEFE0F7E23197F1F700C000008C2F60
:10024000DF91CF911F9108958FEF8ABB87BB11BAC1
:1002500082BB84BB15BA1EE1CEE100E0D0E035C020
:10026000849913C08FE99FE00197F1F700C0000067
:10027000849BFECF8FE99FE00197F1F700C000005B
:100280008C2F0E94C200C82F182F8C2F0E94410073
:10029000829909C08FE99FE00197F1F700C0000043
:1002A000829BFECF0F5F83990FC08FE99FE001977C
:1002B000F1F700C00000839BFECF8FE99FE001971C
:1002C000F1F700C00000C12FDF5FD23348F200FD1C
:1002D000C5CFC15019F60E949300C12FBFCFF8942B
:0202E000FFCF4E
:0A02E2007E0CB69ECCDAFA0EFFDEA9
:00000001FF
