:100000000C942A000C943F000C943F000C943F0089
:100010000C943F000C943F000C943F000C943F0064
:100020000C943F000C943F000C943F000C943F0054
:100030000C943F000C943F000C943F000C943F0044
:100040000C943F000C943F000C943F000C943F0034
:100050000C943F0011241FBECFE5D8E0DEBFCDBF1A
:1000600010E0A0E6B0E0EAE7F2E002C005900D92F1
:10007000AA36B107D9F70E9401010C943B010C94F8
:100080000000CF93DF93CDB7DEB72A970FB6F89471
:10009000DEBF0FBECDBF9AE0E0E6F0E0DE011196D4
:1000A00001900D929A95E1F7AE9A6AE00E942F01B5
:1000B000E1E0F0E0EC0FFD1FE90FF11D90819BBB2B
:1000C000AF98EFE9FFE03197F1F700C00000AF9A79
:1000D000E1E0F0E0EC0FFD1FE80FF11D80818BBB2C
:1000E000AE988FEC97E00197F1F700C000002A96D8
:1000F0000FB6F894DEBF0FBECDBFDF91CF9108954C
:1001000084E02EE79FEFAF9AAE9A2BBBAD9A98BBD7
:100110003FEF41EE54E0315040405040E1F700C025
:100120000000AF98AE98AD9818BA3FEF4DEE52E090
:10013000315040405040E1F700C00000815019F7B5
:100140000895CF93DF93C82FD4E18FEC97E0019708
:10015000F1F700C000008C2F0E9441008FEC97E067
:100160000197F1F700C000008C2F0E9441008FEC36
:1001700097E00197F1F700C000008C2F0E9441002A
:100180008FEC97E00197F1F700C000008C2F0E94E0
:100190004100D150D1F6DF91CF9108950F931F9375
:1001A000CF93DF93C82F6AE00E942F01D82F192F19
:1001B0008C2F0E94410008EC829907C08C2F0E946E
:1001C000A100DF5FDA3009F4D0E0839907C08C2FFB
:1001D0000E94A1001F5F1A3009F410E0C12F8AE0CD
:1001E000D89FC00D1124849B03C0015029F7E0CF94
:1001F0008C2F0E94A1008C2FDF91CF911F910F9126
:1002000008958FEF8ABB87BB11BA82BB84BB15BA36
:10021000DEE1CEE110E008EC849908C08C2F0E944A
:10022000A1008C2F0E94CE00C82FD82F8C2F0E94A7
:100230004100829904C08C2F0E94A1001F5F839906
:1002400004C08C2F0E94A100CD2F015029F710FD72
:10025000E2CFC15001F70E948000CD2FDCCF991B67
:1002600079E004C0991F961708F0961B881F7A95AD
:0A027000C9F780950895F894FFCFB8
:0A027A007E0CB69ECCDAFA0EFFDE11
:00000001FF
